{
  "contractName": "Certification",
  "abi": [
    {
      "inputs": [
        {
          "internalType": "uint256",
          "name": "",
          "type": "uint256"
        }
      ],
      "name": "isGreen",
      "outputs": [
        {
          "internalType": "bool",
          "name": "",
          "type": "bool"
        }
      ],
      "stateMutability": "view",
      "type": "function"
    },
    {
      "inputs": [
        {
          "internalType": "uint256",
          "name": "generatorId",
          "type": "uint256"
        },
        {
          "internalType": "bool",
          "name": "green",
          "type": "bool"
        }
      ],
      "name": "certify",
      "outputs": [],
      "stateMutability": "nonpayable",
      "type": "function"
    },
    {
      "inputs": [
        {
          "internalType": "uint256",
          "name": "generatorId",
          "type": "uint256"
        }
      ],
      "name": "checkCertification",
      "outputs": [
        {
          "internalType": "bool",
          "name": "",
          "type": "bool"
        }
      ],
      "stateMutability": "view",
      "type": "function"
    }
  ],
  "bytecode": "0x6080604052348015600e575f80fd5b5061025e8061001c5f395ff3fe608060405234801561000f575f80fd5b506004361061003f575f3560e01c806362816d7d14610043578063f83aea831461005f578063fbfe0f6e1461008f575b5f80fd5b61005d60048036038101906100589190610197565b6100bf565b005b610079600480360381019061007491906101d5565b6100ea565b604051610086919061020f565b60405180910390f35b6100a960048036038101906100a491906101d5565b61010f565b6040516100b6919061020f565b60405180910390f35b805f808481526020019081526020015f205f6101000a81548160ff0219169083151502179055505050565b5f805f8381526020019081526020015f205f9054906101000a900460ff169050919050565b5f602052805f5260405f205f915054906101000a900460ff1681565b5f80fd5b5f819050919050565b6101418161012f565b811461014b575f80fd5b50565b5f8135905061015c81610138565b92915050565b5f8115159050919050565b61017681610162565b8114610180575f80fd5b50565b5f813590506101918161016d565b92915050565b5f80604083850312156101ad576101ac61012b565b5b5f6101ba8582860161014e565b92505060206101cb85828601610183565b9150509250929050565b5f602082840312156101ea576101e961012b565b5b5f6101f78482850161014e565b91505092915050565b61020981610162565b82525050565b5f6020820190506102225f830184610200565b9291505056fea2646970667358221220f726128f67d3a07226f1d8c33439c58ab7fd2a6c7f308e4c2830709d01062eaf64736f6c634300081a0033",
  "immutableReferences": {},
  "source": "pragma solidity ^0.8.0;\r\n\r\ncontract Certification {\r\n    mapping(uint => bool) public isGreen;\r\n\r\n    function certify(uint generatorId, bool green) public {\r\n        isGreen[generatorId] = green;\r\n    }\r\n\r\n    function checkCertification(uint generatorId) public view returns (bool) {\r\n        return isGreen[generatorId];\r\n    }\r\n}\r\n",
  "sourcePath": "C:\\Users\\rajsh\\hydrogen-demo\\contracts\\Certification.sol",
  "compiler": {
    "name": "solc",
    "version": "0.8.26+commit.8a97fa7a.Emscripten.clang"
  },
  "schemaVersion": "3.4.16",
  "updatedAt": "2024-07-20T19:22:18.158Z",
  "devdoc": {
    "kind": "dev",
    "methods": {},
    "version": 1
  },
  "userdoc": {
    "kind": "user",
    "methods": {},
    "version": 1
  }
}