{
  "contractName": "NozzleControl",
  "abi": [
    {
      "inputs": [
        {
          "internalType": "address",
          "name": "_certAddress",
          "type": "address"
        }
      ],
      "stateMutability": "nonpayable",
      "type": "constructor"
    },
    {
      "inputs": [
        {
          "internalType": "uint256",
          "name": "generatorId",
          "type": "uint256"
        }
      ],
      "name": "openNozzle",
      "outputs": [
        {
          "internalType": "bool",
          "name": "",
          "type": "bool"
        }
      ],
      "stateMutability": "view",
      "type": "function"
    }
  ],
  "bytecode": "0x608060405234801561000f575f80fd5b50604051610351380380610351833981810160405281019061003191906100d4565b805f806101000a81548173ffffffffffffffffffffffffffffffffffffffff021916908373ffffffffffffffffffffffffffffffffffffffff160217905550506100ff565b5f80fd5b5f73ffffffffffffffffffffffffffffffffffffffff82169050919050565b5f6100a38261007a565b9050919050565b6100b381610099565b81146100bd575f80fd5b50565b5f815190506100ce816100aa565b92915050565b5f602082840312156100e9576100e8610076565b5b5f6100f6848285016100c0565b91505092915050565b6102458061010c5f395ff3fe608060405234801561000f575f80fd5b5060043610610029575f3560e01c8063b947ef591461002d575b5f80fd5b61004760048036038101906100429190610134565b61005d565b6040516100549190610179565b60405180910390f35b5f805f9054906101000a900473ffffffffffffffffffffffffffffffffffffffff1673ffffffffffffffffffffffffffffffffffffffff1663f83aea83836040518263ffffffff1660e01b81526004016100b791906101a1565b602060405180830381865afa1580156100d2573d5f803e3d5ffd5b505050506040513d601f19601f820116820180604052508101906100f691906101e4565b9050919050565b5f80fd5b5f819050919050565b61011381610101565b811461011d575f80fd5b50565b5f8135905061012e8161010a565b92915050565b5f60208284031215610149576101486100fd565b5b5f61015684828501610120565b91505092915050565b5f8115159050919050565b6101738161015f565b82525050565b5f60208201905061018c5f83018461016a565b92915050565b61019b81610101565b82525050565b5f6020820190506101b45f830184610192565b92915050565b6101c38161015f565b81146101cd575f80fd5b50565b5f815190506101de816101ba565b92915050565b5f602082840312156101f9576101f86100fd565b5b5f610206848285016101d0565b9150509291505056fea26469706673582212206aa05b52c93288decc5b3c1748abe59845ebdb854ea676a0728d2515825b2ddc64736f6c634300081a0033",
  "immutableReferences": {},
  "source": "pragma solidity ^0.8.0;\r\n\r\nimport \"./Certification.sol\";\r\n\r\ncontract NozzleControl {\r\n    Certification cert;\r\n\r\n    constructor(address _certAddress) {\r\n        cert = Certification(_certAddress);\r\n    }\r\n\r\n    function openNozzle(uint generatorId) public view returns (bool) {\r\n        return cert.checkCertification(generatorId);\r\n    }\r\n}\r\n",
  "sourcePath": "C:\\Users\\rajsh\\hydrogen-demo\\contracts\\NozzleControl.sol",
  "compiler": {
    "name": "solc",
    "version": "0.8.26+commit.8a97fa7a.Emscripten.clang"
  },
  "schemaVersion": "3.4.16",
  "updatedAt": "2024-07-20T19:22:18.164Z",
  "devdoc": {
    "kind": "dev",
    "methods": {},
    "version": 1
  },
  "userdoc": {
    "kind": "user",
    "methods": {},
    "version": 1
  }
}